:02000002B0004C
:1040000000400B00F4950B00000006000C000502B8
:0840100004016810000000002B
:04401800248F0B00E6
:1040200009480A49884208B505D0094A824202D0A7
:10403000121A04F0C5FE0748074A0021121A04F0BC
:10404000CDFE014808BD00BFECE0032008950B0041
:10405000B0E10320B0E10320EDE7032070B5074E87
:10406000074C04F077F8A41BA4080025AC4200D14B
:1040700070BD56F8043B98470135F7E7B0940B0044
:10408000D4940B0000F0A6B808B500F093FDBDE88D
:10409000084004F017B803F067BA03F065BA03F0FC
:1040A0006BBA0078B0FA80F04009704701230370C2
:1040B00070477047037C13F008031EBFC36A406A51
:1040C0001B1A002BACBF18466FF0004070477047BA
:1040D00010B510210446FFF7E2FF204610BD10B5D1
:1040E00034210446FFF7DBFF204610BD103001F0FD
:1040F00039BF103001F057BE07B501220DF107019D
:10410000103001F0A2FD01280CBF9DF807004FF010
:10411000FF3003B05DF804FB103001F0ADBF07B510
:1041200001228DF8071010300DF1070101F0A4FFF6
:1041300003B05DF804FB10B42AB902685DF8044BC3
:104140009268C9B210475DF8044BD2B203F06FBC5D
:1041500010B50446FFF7EFFF2046BDE8104003F01E
:104160004EBC0EB403B503AB002153F8042B0193EE
:1041700003F053FD02B05DF804EB03B0704700009C
:1041800073B5044608462279A36832B1A3B90B4936
:1041900002B0BDE8704003F02BBC094A267B094DF4
:1041A0000949647B012E18BF2946CDE9001407494F
:1041B000FFF7D7FF02B070BD054AEFE7498F0B004C
:1041C00094910B00458F0B00418F0B005F8F0B000C
:1041D000388F0B0070B58EB003F0EEFE4FF4165121
:1041E00003F0D8FE03F0E8FE03F0DBFE18B901206F
:1041F00003F0E2F9F6E704F063F800230246392100
:104200004F4800F043FD40B903F0D6FE4D4903F09E
:1042100002FC0A2003F0D0F9FBE7FF21484800F038
:104220000DFE40F2E731464800F02DFE44480821DB
:1042300000F050FE444801F0EFFB28B903F0BCFE4B
:10424000424903F0E8FBFEE73F4801F0E7FB20B9F5
:1042500003F0B2FE3E4903F0DEFB04F031F85821D2
:1042600002463C4801F096F840B903F0A5FE3A49F1
:1042700003F0D1FB0A2003F09FF9FBE703F09CFE5B
:104280003649374C03F0C7FB364B324819780322C6
:1042900001F025F8344B019300238DF8083004F524
:1042A0008C66324B0393012501AB052204F26C416D
:1042B0003046ADF8105002F029FDF8B104F23C4050
:1042C000266001F085FE2946204602F0C9FB04F273
:1042D0003C45014668B1224901F23C4001F0AFFC87
:1042E00060B194F83C3413F0700F1CBF204B1D607C
:1042F00004E0204602F0B4FB0028ECD100234FF488
:104300007A72CDE9023205931A4B01931A4A1B497E
:1043100044F2022305A801F062FE9DF8143043B177
:10432000174901A803F077FB05A801F051FE0EB074
:1043300070BD03F041FE134903F077FBF7E700BFC0
:1043400050E603207C8F0B00B0E60320928F0B0019
:10435000A48F0B0078E60320B88F0B00D88F0B00DA
:10436000C0E10320BCE103203C920B0080F0FA0284
:10437000B8E6032050920B00E68F0B00FCE503200B
:1043800008900B0041910B00F0B595B0684601F024
:1043900066FB02F0EDFE4FF47A73B0FBF3F505FB1C
:1043A000130503F009FE4A4903F022FB03F004FE63
:1043B000484903F01DFB03F0FFFD474B1C68002C30
:1043C000064680F283802D2103F016FB61420A220B
:1043D000304603F02CFB304603F011FB03F0ECFDFC
:1043E00003F00DFB03F0E8FD9DF800100A2201F533
:1043F000FA61FFF7A0FE03F0DFFD2F2103F0FCFAC6
:1044000003F0DAFD0A229DF8011003F010FB03F01F
:10441000D3FD2F2103F0F0FA03F0CEFD0A229DF820
:10442000021003F004FB03F0C7FD2C4903F0E0FA8F
:1044300003F0C2FD0446684601F0D8FA284903B2E9
:1044400003EB430301EB8301204603F0D1FA03F0B1
:10445000B3FD244903F0CCFA03F0AEFD0A229DF827
:10446000031003F0E4FA03F0A7FD3A2103F0C4FAC5
:1044700003F0A2FD0A229DF8041003F0D8FA03F01D
:104480009BFD3A2103F0B8FA03F096FD0A229DF84D
:10449000051003F0CCFA03F08FFD2E2103F0ACFAE7
:1044A00003F08AFD29460A2203F0C1FA03F084FDD5
:1044B00003F0A5FA0C4802A900F077FEC0B903F09A
:1044C0007BFD0A4903F0A7FA15B0F0BD21467EE74F
:1044D00055910B0093910B00ECE0032064910B00CD
:1044E000F0E0032067910B0050E603206A910B0077
:1044F000AA4F02AD08AEFC24012C05D92988384604
:1045000000F00EFD86ED000A0134E4B2082C05F13E
:10451000020506F10406EFD103F04EFD2C2103F055
:104520006BFA03F049FD044602F022FE0A224FF422
:104530007A71B0FBF1F1204603F079FA204603F0DE
:104540005EFA03F039FD964903F052FA03F034FDA8
:104550009DED080A022103F051FB03F02DFD914966
:1045600003F046FA03F028FD8F4903F041FA03F007
:1045700023FD0A22BDF80810FFF7EAFD03F01CFD39
:104580008A4903F035FA03F017FD9DED090A02216F
:1045900003F034FB03F010FD824903F029FA03F025
:1045A0000BFD814903F024FA03F006FD0A22BDF851
:1045B0000A10FFF7CDFD03F0FFFC7D4903F018FA68
:1045C00003F0FAFC9DED0A0A022103F017FB03F049
:1045D000F3FC744903F00CFA03F0EEFC724903F0AB
:1045E00007FA03F0E9FC0A22BDF80C10FFF7B0FD52
:1045F00003F0E2FC6F4903F0FBF903F0DDFC9DEDF5
:104600000B0A022103F0FAFA03F0D6FC654903F025
:10461000EFF903F0D1FC644903F0EAF903F0CCFCB4
:104620000A22BDF80E10FFF793FD03F0C5FC6249A6
:1046300003F0DEF903F0C0FC9DED0E0A022103F049
:10464000DDFA03F0B9FC574903F0D2F903F0B4FCEA
:10465000554903F0CDF903F0AFFC0A22BDF8141060
:10466000FFF776FD03F0A8FC544903F0C1F903F00D
:10467000A3FC9DED0F0A022103F0C0FA03F09CFC9D
:10468000484903F0B5F903F097FC474903F0B0F946
:1046900003F092FC0A22BDF81610FFF759FD03F053
:1046A0008BFC474903F0A4F903F086FC9DED100A4A
:1046B000022103F0A3FA03F07FFC3A4903F098F9D2
:1046C00003F07AFC384903F093F903F075FC0A22F1
:1046D000BDF81810FFF73CFD03F06EFC394903F0FC
:1046E00087F903F069FC9DED110A022103F086FAB7
:1046F00003F062FC2B4903F07BF903F05DFC2A49CF
:1047000003F076F903F058FC0A22BDF81A10FFF7FF
:104710001FFD03F051FC2C4903F06AF903F04CFC37
:104720009DED120A022103F069FA03F045FC1D49D0
:1047300003F05EF903F040FC1B4903F059F903F064
:104740003BFC0A22BDF81C10FFF702FD03F034FC0D
:104750001E4903F04DF903F02FFC9DED130A0221D1
:1047600003F04CFA03F028FC0E4903F041F903F082
:1047700023FC0D4903F03CF903F01EFC0A22BDF8AE
:104780001E10FFF7E5FC03F017FC064903F030F9B3
:1047900003F012FC03F033F996E600BF50E6032065
:1047A00086910B0092910B0095910B00A2910B004A
:1047B000AE910B00BA910B00C6910B00D2910B0089
:1047C000DE910B00EA910B00F6910B0002920B00B8
:1047D000F0B5A3B000234FF47A72CDE916321993E5
:1047E0000B4B0C490C4A159319A844F2022301F013
:1047F000F6FB01A801F033F9084803A900F0D5FC45
:1048000080B903F0D9FB064903F005F923B0F0BDE8
:1048100050920B00FCE50320E68F0B0050E60320CE
:104820006A910B00CB4F03AD09AEFC24012C05D9D6
:104830002988384600F074FB86ED000A0134E4B2A2
:10484000082C05F1020506F10406EFD19DF864304D
:10485000002B00F0A58102F08BFCBF4BBF481A78FB
:10486000BF4B197800F014FD9DF804100A2215A81A
:1048700001F5FA61FFF75FFC2F2115A803F0BCF8E2
:104880009DF805100A2215A803F0D1F82F2115A8CC
:1048900003F0B2F80A229DF8061015A803F0C7F835
:1048A000B04915A803F0A4F801A801F09FF8AE499B
:1048B00000B200EB400001EB800115A803F098F86E
:1048C000AA4915A803F094F89DF807100A2215A824
:1048D00003F0ADF83A2115A803F08EF89DF8081002
:1048E0000A2215A803F0A3F83A2115A803F084F8CA
:1048F0000A229DF8091015A803F099F82C2115A893
:1049000003F07AF8934800F0D2FA0A22014615A87B
:10491000FFF711FC2C2115A803F06EF88D4800F06C
:10492000A0FA0A22014615A803F081F82C2115A847
:1049300003F062F8874800F0E0FA0A22014615A861
:1049400003F075F82C2115A803F056F8884915A82E
:1049500003F04EF82C2115A803F04EF8854915A850
:1049600003F046F82C2115A803F046F8824915A853
:1049700003F03EF82C2115A803F03EF802F0F8FBF6
:104980000A224FF47A71B0FBF1F115A803F04FF849
:104990002C2115A803F030F802F0EAFB0A220146A8
:1049A00015A803F044F82C2115A803F025F8734945
:1049B00015A803F01DF82C2115A803F01DF89DED96
:1049C000090A022115A803F019F92C2115A803F0F2
:1049D00013F89DED0A0A022115A803F00FF92C2106
:1049E00015A803F009F89DED0B0A022115A803F0A4
:1049F00005F92C2115A802F0FFFF9DED0C0A0221FC
:104A000015A803F0FBF82C2115A802F0F5FF9DED89
:104A10000F0A022115A803F0F1F82C2115A802F0C5
:104A2000EBFF9DED100A022115A803F0E7F82C21F9
:104A300015A802F0E1FF9DED110A022115A803F06F
:104A4000DDF82C2115A802F0D7FF9DED120A0221F6
:104A500015A803F0D3F82C2115A802F0CDFF9DED89
:104A6000130A022115A803F0C9F82C2115A802F099
:104A7000C3FF9DED140A022115A803F0BFF82C21F5
:104A800015A802F0B9FF3E4915A802F0B1FF2C218C
:104A900015A802F0B1FFBDF80C100A2215A8FFF707
:104AA0004AFB2C2115A802F0A7FFBDF80E100A2220
:104AB00015A8FFF740FB2C2115A802F09DFFBDF8BB
:104AC00010100A2215A8FFF736FB2C2115A802F0BA
:104AD00093FFBDF812100A2215A8FFF72CFB2C211A
:104AE00015A802F089FFBDF818100A2215A8FFF7D3
:104AF00022FB2C2115A802F07FFFBDF81A100A2214
:104B000015A8FFF718FB2C2115A802F075FFBDF8BA
:104B10001C100A2215A8FFF70EFB2C2115A802F085
:104B20006BFFBDF81E100A2215A8FFF704FB2C210D
:104B300015A802F061FFBDF820100A2215A8FFF7A2
:104B4000FAFA2C2115A802F057FF0A22BDF822100C
:104B500015A817E050E60320ECE0032078E60320D8
:104B6000BCE1032064910B00F0E0032067910B008F
:104B70000E920B0015920B0019920B001B920B006A
:104B800028920B00FFF7E4FA2C2115A802F034FF5D
:104B9000064915A802F03FFF19A801F019FA35E6F9
:104BA00003F00AFA024902F040FF2FE694910B004D
:104BB00041910B0008B5FFF7E7FBBDE80840FFF7A0
:104BC00007BE000037B52448244C254D00F056F8A8
:104BD000244800F020FB244A00234FF47A71C2E9F4
:104BE00001312249136111606422C4F86024204A13
:104BF000C4F8702401226360C4F83C34C4F86834FB
:104C000084F87424C4F87834A4F87C342978BFF389
:104C10005B8F11400BD128460191FFF742FA0199B1
:104C200028B1144803F036F82846FFF73FFA114B35
:104C3000C4F86C340021012002F00AFC0E4B002263
:104C4000C3E900220220A2F580329A6003B0BDE8D9
:104C5000304002F0EDBB00BF50E60320C0E103206E
:104C6000B0E1032078E603207CE6032050920B009D
:104C70003C920B00B4E1032044E60320024A0260A8
:104C80000022027182607047A4920B002DE9F0416E
:104C9000044680680F4690461E4610B11021FFF76B
:104CA000FEF91020FFF7F7F9054618B142463946DC
:104CB00000F0B0FCA5600121284600F0C7FC30B12F
:104CC0002368314620461B68BDE8F0411847BDE81F
:104CD000F08170B501258AB00026CDE900650C464B
:104CE0002B468168802204A800F092FB33462A46B6
:104CF00004A902A800F063FC214602A800F071FCA0
:104D00000AB070BD70B5012588B00024CDE900451A
:104D10002B4681689222064602A800F079FB02A881
:104D200000F031FCC30706D430462946FFF7D1FF17
:104D3000284608B070BD2046FBE710B501238AB0B5
:104D40000022CDE900230C468022816804A800F0EF
:104D50005FFB01231A4604A902A800F030FC21469B
:104D600002A800F03EFC0AB010BD30B501258BB0A2
:104D70000024CDE900452B468168802204A800F07C
:104D800047FB2A46042304A902A800F018FC294680
:104D900002A800F026FC054602A800F015FC38B178
:104DA000B4F57A7F0BD0012002F006FC0134F3E762
:104DB000B4F57A7F08BF002528460BB030BD00252A
:104DC000FAE710B501238AB00022CDE900230C4692
:104DD000AF22816804A800F01BFB0323022204A970
:104DE00002A800F0ECFB214602A800F0FAFB0AB092
:104DF00010BD10B500238AB00124CDE90034A322F0
:104E00008168234604A800F003FB0623224604A978
:104E100002A800F0D4FB02A800F0D6FB003818BFAF
:104E200001200AB010BD10B504462046FFF7E1FF8F
:104E300018B9012002F0C0FBF7E710BD30B501231F
:104E400089B00025CDE900530C468122816802A873
:104E500000F0DEFA2A46214602A800F034FB09B031
:104E600030BD00B5012389B00022CDE900238122A5
:104E7000816802A800F0CCFA02A800F084FBC0B25E
:104E800009B05DF804FB30B5012389B00025CDE9F8
:104E900000530C4602238168CA2202A800F0B8FA27
:104EA0002A46214602A800F00EFB09B030BD00B52D
:104EB000002389B00122CDE9003202238168CA2291
:104EC00002A800F0A5FA02A800F05DFB80B209B0CC
:104ED0005DF804FB30B5012389B00025CDE900530E
:104EE0000C46AA22816802A800F092FA2A462146BE
:104EF00002A800F0E8FA09B030BD00B5012389B07E
:104F00000022CDE90023AA22816802A800F080FADD
:104F100002A800F038FBC0B209B05DF804FB000045
:104F2000F8B52DED028B0D460446FFF7E6FF0A2883
:104F300097BF1F4BDFED1F8A03EB8000D0ED008A87
:104F40002046FFF78EFF431C204608EE103AFFF77D
:104F5000AEFF04460134284603F06AFBB8EEC88A67
:104F600007EE904A28EE288AF8EEE77A064667EEC2
:104F7000887A0F4617EE900A03F06CFB0AA3D3E978
:104F8000002303F0BFFB0C4B002203F0E5FC0246BC
:104F90000B463046394603F0DFFC03F0ABFEBDECB8
:104FA000028B00EE100AF8BD3D0AD7A3703D064003
:104FB00070920B000000000000408F4030B50123CC
:104FC00089B00025CDE9005314460A46816802A83D
:104FD00000F01EFA2A46214602A800F074FA09B031
:104FE00030BD10B5302200210446FFF7E7FF012253
:104FF00011462046FFF7E2FF204600220221FFF77C
:10500000DDFF204600220321FFF7D8FF20460022C3
:105010000421FFF7D3FF204642220521FFF7CEFFF0
:10502000204600220621FFF7C9FF20460022072163
:10503000FFF7C4FF204650220821FFF7BFFF20469C
:1050400000220921FFF7BAFF204600220A21FFF7BC
:10505000B5FF204600220B21FFF7B0FF204620229B
:105060000C21FFF7ABFF204604220D21FFF7A6FF1E
:10507000204600220E21FFF7A1FF204630220F21FB
:10508000FFF79CFF204601221021FFF797FF2046E3
:1050900050221121FFF792FF204600221221FFF734
:1050A0008DFF20460622BDE810401321FFF786BF82
:1050B000002210B511460446FFF780FF204600226B
:1050C0000121FFF77BFF204600220221FFF776FF38
:1050D000204640220321FFF771FF204602220421CF
:1050E000FFF76CFF204600220521FFF767FF2046EF
:1050F00010220621FFF762FF204603220721FFF757
:105100005DFF204650220821FFF758FF204610225D
:105110000921FFF753FF204603220A21FFF74EFF24
:10512000204600220B21FFF749FF204600220C21D8
:10513000FFF744FF204600220D21FFF73FFF2046E6
:1051400024220E21FFF73AFF204600220F21FFF70D
:1051500035FF204600221021FFF730FF2046502265
:105160001121FFF72BFF204600221221FFF726FF17
:1051700020460622BDE810401321FFF71FBF38B5B7
:1051800004460D460021FFF7D8FD02212046FFF717
:1051900018FE204635B1FFF724FF2046BDE8384011
:1051A000FFF7E3BDFFF784FFF7E72DE9F041044681
:1051B00088B00E460121FFF7E2FF01212046FFF7EC
:1051C000BCFD4FF0000820460127FFF72CFE02230C
:1051D000A1689522CDE9008702A800F019F90C22F8
:1051E000314602A800F08DF9414605462046FFF7FA
:1051F000C6FF39462046FFF7A0FD2046FFF713FE05
:105200002DB10C22B11802A800F07BF90546284602
:1052100008B0BDE8F08100220260704710B501239C
:1052200088B00024CDE900437F22016802A800F085
:10523000EFF82246214602A800F045F908B010BD5B
:1052400030B5012389B00025CDE900530C46022377
:105250000168062202A800F0DBF82A46E14302A812
:1052600000F031F909B030BD30B5012389B0002517
:10527000CDE900530C4602230168042202A800F085
:10528000C7F82A46E14302A800F01DF909B030BD75
:1052900030B50729144689B04FF0000211D801F14A
:1052A0002403DAB201230025CDE90053016802A8E6
:1052B00000F0AEF82A46214602A800F004F909B031
:1052C00030BDA1F10803032B02D801F11803E8E770
:1052D000A1F10C03032BE5D801F12003E1E72DE94F
:1052E000F041012492B00026CDE900640F468046CB
:1052F000016815460223042206A800F089F83B46FF
:10530000224606A902A800F05AF9D8F80010022394
:105310001222CDE900640CA800F07AF83B46224640
:105320000CA904A800F04BF9A5420AD1314602A805
:1053300000F057F9294604A800F053F912B0BDE86F
:10534000F0813DB1032DF9D1314602A800F049F9B1
:105350003146F0E7214602A800F043F92146EAE78A
:1053600030B500238BB00125CDE900350C462B4626
:105370000168112204A800F04BF804232A4604A96E
:1053800002A800F01CF984EA050102A800F029F93E
:105390000BB030BDF0B50446006889B00E46174624
:1053A00010B11021FEF77BFE1020FEF774FE0546BB
:1053B00018B13A46314600F02DF925600121284602
:1053C00000F044F918B90025284609B0F0BD204680
:1053D000FFF724FF05460028F5D001230026CDE97C
:1053E00000632168102202A800F012F802A800F061
:1053F000CAF82328E7D131462046FFF735FF31466A
:105400002046FFF7ADFF31462046FFF719FFDBE7E7
:1054100030B50025C0E9001542819DF810109DF8B7
:105420000C20456141738273037330BDF0B545892B
:10543000847A85B0034600688DF80C402D0A0E462C
:1054400017468DF80D5040B15B7B019303AB009381
:10545000012300F00AF905B0F0BD58680028FAD021
:1054600093F808E093F80DC0BEF1030F0CD10CF1D6
:10547000010325F0010500938DF80C508DF80D40C7
:1054800003AB00F02AFAE6E7BEF1000F09D104F001
:105490007F048DF80C40CDF800C003AB3A4631468E
:1054A000EFE7BEF1020F02D164F07F04F1E7BEF135
:1054B000010F01BF9DF80C3003F07F0343F0400360
:1054C0008DF80C30E7E7F0B40B4602B9027B042AF2
:1054D00014D800F10F05436184182946844209D08D
:1054E000877BDEB227B92E701B0A0135013CF5E738
:1054F000A673F9E72046F0BCFFF798BF0020F0BC88
:1055000070477FB54689857A8DF80C50044600684F
:10551000360A0B468DF80D6040B10021CDE900211F
:1055200003A9627B00F00FF904B070BD6068002829
:10553000FAD0217A647B03290DD146F00106FF21C0
:10554000CDE900218DF80C608DF80D50621C03A987
:1055500000F0F5F9E8E741B965F07F058DF80C50EA
:10556000FF21CDE900212246F1E7022902D105F011
:105570007F05F3E7012902BF9DF80C1061F03F01A0
:105580008DF80C10ECE738B500F10F05027B2946C9
:105590000446FFF7B6FF78B1227B2946224400205B
:1055A000A2420BD00302A07B20B9907B1843013AA2
:1055B0000131F5E70878F9E74FF0FF3038BD10B555
:1055C00001600271437110BD10B504460068FFF719
:1055D000DAFF2279012393406279013BD0401840E1
:1055E00010BD70B5044600680E46FFF7CCFF237966
:1055F000617901229A40531E03FA01F520EA05055C
:105600003340206803FA01F12943027BBDE8704072
:10561000FFF759BF42600022027220220170C2606F
:10562000704710B5037A044653B12178606802F0E0
:1056300089F8606802F091F8B0FA80F0400910BD76
:10564000012100F003F80028EFD1F8E738B504464F
:1056500040680D4602F044F80120207225B1204632
:10566000BDE83840FFF7DDBF38BD2DE9F843DDE97F
:1056700008961F46C368154632449A420446884637
:1056800002D90020BDE8F8830178406802F05AF89A
:105690007EB9606803682A46DB68414698478542C0
:1056A000EFD16068394602F054F8B0FA80F0400952
:1056B000E8E7B9F1000FECD0606803683246DB68B8
:1056C000494698478642DCD1E3E72DE9F04115468B
:1056D00004460E46D2B20178406802F01EF88542B8
:1056E0000DD100271FFA87F8A84507F1010709D255
:1056F000606803685B69984706F80800F2E70020D5
:10570000BDE8F0810120FBE72DE9F8430746884614
:10571000164699460025B54212D2FA68741B944287
:1057200028BF1446331BAB4294BF4B46002322468E
:1057300008EB05013846FFF7C8FF10B12544EAE73A
:105740000120BDE8F88373B51D460023CDE9003381
:105750009DF81C30069E0446FFF787FF40B10123E9
:1057600032462946204602B0BDE87040FFF7CCBF64
:1057700002B070BD2DE9F04F0446006885B00D46BB
:1057800040B10023009313460A4602F02FFB05B0F8
:10579000BDE8F08F237BA068484FB7FBF0F7002BE4
:1057A0000B780CBF4FF0010B4FF0800B1BEA030F7F
:1057B00001EB02030CBF4FF001094FF00009FFB2EB
:1057C0000393039BAB42E2D095F800A05E464FF0F6
:1057D000000817B1384601F0BBFC637B13F0FD0FE6
:1057E00041D194F910305A1C0FD01AEA060114BFA7
:1057F000012300234B4508D06369606A1A680029B9
:105800002CD002431A604FF00109A169E36A0A68CB
:1058100013430B6017B1384601F09AFC94F911302C
:10582000013306D0E3691A68A36A1A4218BF46EA30
:105830000808A169E36A0A6822EA03030B6094F985
:105840001130013318BF85F80080237B002B32D143
:105850007600F6B2002EBCD10135B2E722EA000292
:105860001A608946D1E7A169E36A0A6813430B60AD
:1058700017B1384601F06CFC94F91030013308D0B0
:105880006369616A1A681AEA060F14BF0A438A43F9
:105890001A60A169E36A0A6822EA03030B6094F9BB
:1058A00011300133CBD0E3691A68A36A1A4218BFDA
:1058B00046EA0808C3E77608CCE700BF20A1070046
:1058C00007B501228DF807100DF10701FFF752FF10
:1058D0009DF8070003B05DF804FB2DE9F041044694
:1058E00000680E4617461D4610B1616802F00AFABC
:1058F00094F90E00002180B202F0ADFC069B05EB8E
:105900000308454508D13744B7420BD016F8011BB0
:105910002046FFF7D5FFF7E715F8011B2046FFF7F4
:10592000CFFFEEE794F90E00012180B202F093FC64
:10593000206808B102F0CCF90120BDE8F0812DE922
:10594000F041044600689DF81C800E4617461D462F
:1059500010B1616802F0D6F994F90E00002180B20E
:1059600002F079FC3744BE420AD1069BEE18AE42E3
:105970000CD041462046FFF7A3FF05F8010BF6E7E0
:1059800016F8011B2046FFF79BFFECE794F90E0089
:10599000012180B202F05FFC206808B102F098F9A2
:1059A0000120BDE8F081000030B50F4C0023013329
:1059B000DDB28D4204D214F8015B2A4492B2F6E7BC
:1059C000022903D9830704BF013292B200EBC00160
:1059D000C31C00EBC10000EB8000C3F38D03013852
:1059E0001844104480B230BDA8920B0008B58278EC
:1059F00041780078FFF7D8FF07230630B0FBF3F3B8
:105A0000C3EBC303C01AC0B208BD08B502F058FC0E
:105A100001F066FE012008BDFFF7F7BF08B502F0F0
:105A20004FFC682101F092FE02F04AFC036802215B
:105A30009B68984702F044FC01F08FFE02F040FCA6
:105A40000122682101F07BFE02F03AFC03685B69E9
:105A5000984700F0E000E03818BF012008BD2DE9AC
:105A6000F843044602F02CFC682101F06FFE02F0BE
:105A700027FC036803219B68984702F021FC01F092
:105A80006CFE02F01DFC0722682101F058FE02F0B6
:105A900017FC03685B69984700F07F09C0F30210A8
:105AA000A0EB800009EB40005FFA80F902F008FCEF
:105AB00003685B699847C0F30315A5EB850500EB08
:105AC000450000F0FF0502F0FBFB03685B699847A7
:105AD000C0F30316A6EB860600EB460000F0FF06B7
:105AE00002F0EEFB03685B699847C0F30317A7EB6E
:105AF000870700EB470000F0FF0702F0E1FB0368B7
:105B00005B69984702F0DCFB03685B699847C0F368
:105B10000318A8EB880800EB480000F0FF0802F02B
:105B2000CFFB03685B699847C0F30313A3EB8303C0
:105B300000EB4300207084F80180A770E6702571A7
:105B400084F805902046BDE8F88338B504460D4634
:105B50002422002103F042F9A560EB79102B03D039
:105B6000202B06D0002038BD202301202370A070F8
:105B7000F9E74023F9E710B50446243000F062FE4F
:105B800028B104F50C70BDE8104000F05BBE10BDFC
:105B90008378016943F00403837000F11002806888
:105BA00000F006BF2DE9F041017811F02005044610
:105BB00003D000263046BDE8F0814269174B9A4277
:105BC000F7D2FFF7E5FF06460028F2D02169A0686A
:105BD00000F083FE0746A06805223946243000F015
:105BE00059FE80460028E4D029464FF4007203F0A5
:105BF000F5F80125A3681A79AA4209D9186842461E
:105C0000E91901F0B4F90028D3D00135EDB2F1E77C
:105C1000636903EB42236361CCE700BF00FE1F0012
:105C200010B5044680680A462430A16900F032FEAF
:105C300020B1A38803F00F0300EB431010BD0378DD
:105C40000BB9FFF782BF002070472DE9F74F0378AB
:105C5000044688461546002B5DD08278D1075AD578
:105C60001A072DD5C36942699B1A9D4228BF1D465C
:105C70002E464FF0000904F1100B002E00F08F802B
:105C800022786369A0689706C3F3080A4FEA532194
:105C90001FD5006A0144A068BAF1000F42D1B6F5E1
:105CA000007F3FD3C36A99423CD0B6F5806F52D291
:105CB0000068424601F0D2F868B34FF4007744E040
:105CC0009B06D5D583681A894369C3EB42139BB2FF
:105CD000CBE790F8059009EA0109BAF1000F08D165
:105CE000B9F1000F05D15BB951064CBF036A236AB5
:105CF00023612169A06800F0F0FD09EB0001CAE70B
:105D000021695A4600F0EFFD002804DBF1D1237829
:105D100013F0700F43D1637843F0020363704FF0C8
:105D2000FF303DE0CAF50077B7424FF0000200F1C6
:105D3000240028BF374600F0ADFD0028EBD000EB73
:105D40000A013A46404603F03BF863693B44B844D5
:105D50006361F61B91E7227892064FEA562A06D431
:105D60000279A2EB0902D2B2924528BF924699422B
:105D70004FEA4A2708D2A06853460068424601F01D
:105D8000B5F80028E1D1C6E753448B42F3D924305B
:105D9000019100F057FD01990028ECD1BBE7A81B49
:105DA00003B0BDE8F08F73B501220DF10701D0E912
:105DB00004560446FFF749FF01280ABF9DF8070073
:105DC0004FF0FF30C4E9045602B070BD37B54369E7
:105DD00013F4F07F0446C3F3431500D099B90122B0
:105DE0000DF107012046FFF730FF40B2012802D035
:105DF000002003B030BD63691F33A0686361303099
:105E000000EB4510F5E72033F7E72DE9F041027884
:105E1000076904460D4662B14069884202D019B94B
:105E200021616561012006E0160706D5E3698B4212
:105E30000BD227610020BDE8F081910605D5A3684B
:105E40001B89B5EB431FECD9F3E7D4F808C09CF8E5
:105E50000660431E06F109016E1ECB40CE40B342E0
:105E600000D898B953064CBFDCF82030236A236170
:105E700004F11008002ED4D02169A068424600F039
:105E800032FD002806F1FF36F4DCD2E7F61AEFE720
:105E9000F8B50F4604461546002124221E4602F09E
:105EA0009DFFB868A060A58005F00F053B6AE36020
:105EB0006A0100EB451595F83B301F0744D403F009
:105EC0001703237095F83B1011F0180F04BF43F02F
:105ED000080323709DF81830E37006F00303012BCC
:105EE0002CD0022B28D07BBB71052DD40123A370AD
:105EF000A1788B0704D52378DF0625D4DD0723D4CA
:105F0000B31123F07F0306F008052B430B43A37066
:105F1000C36AA3618318B3F84420B3F84A1041EA76
:105F20000241720513D559B9A37843F00403A37055
:105F3000730410D40120F8BD0323D8E70223D6E769
:105F400000F071FD0028EFD100202070F3E72162FE
:105F5000DB6CE361ECE7E1692046FFF756FF0028C0
:105F6000E8D1F1E738B5037804460BB9012038BD14
:105F700083785A0723D50121FFF752FE054628B939
:105F8000637843F0010363700020F0E70378E52BAA
:105F9000F6D023781B0744BFE369C361236A4383B8
:105FA000638C8382094B1B682BB100F116011830FA
:105FB00098472B8B6B82A37823F00403A370A0680F
:105FC000FFF7D9FD0028DBD0D0E700BFB4E60320FF
:105FD00010B50446FFF7C6FF0023237010BDF0B5CF
:105FE00093B01F46002309930378019206460C469E
:105FF00013B1002013B0F0BD0B7813F0700FF8D080
:1060000013782F2B12D1019A13782F2B02D1013242
:106010000192F8E7A1681BB93046FFF710FEE9E7E7
:1060200009A8FFF792FD0028E3D009AC019801AA66
:1060300003A900F00BF90028DBD0019B1B789BB172
:10604000002303AA2146304600F032FA0028D0D0BF
:1060500035460FCD09AC0FC40FCD0FC42B6823609C
:106060003046FFF7B5FFE0E73B4603AA214630463E
:1060700000F01EFABEE700002DE9F04703788946DC
:106080001907044617465BD583789A0758D51B072E
:1060900051D46369DB43BB4252D3B84604F1100AC2
:1060A0006669B8F1000F00F09180A0684379C6F3EB
:1060B000080513EA56260ED16DB92169002946D08C
:1060C000524600F010FC00283ADB04D12046FFF7CE
:1060D0005FFD002834D02169A06800F0FEFB311874
:1060E000A06815B9B8F5007F3FD2C5F500764645E2
:1060F00028BF4646002D36D16269E3699A4234BF13
:1061000001220522243000F0C5FBC8B128443246E4
:106110004946354402F054FEB5F5007F04D1A0682D
:10612000243000F08FFB58B1636933446361B1449C
:10613000A8EB0608B4E7C169FFF767FE0028A8D1FD
:10614000637843F0010363704FF0FF3050E0236A3F
:106150003BB92046FFF71CFD0028F1D023692362DC
:10616000B9E72361B7E70122CCE7B8F5806FC26ACF
:106170001BD390F804C0ACEB0606F3B24FEA582EDE
:10618000734528BF734691424FEA432607D31A440A
:106190008A4282BF4FF0FF3280F82450C262A56865
:1061A0004A46286800F059FFBDE7914202BF4FF010
:1061B000FF3380F82450C362A3684A46186800F091
:1061C000D6FE0028BCD04FF40076ADE7E269A37894
:1061D000B24204D2E66143F00403A37003E0084A2C
:1061E0001268002AF7D194F90230002B02DB3846FE
:1061F000BDE8F0872046FFF7B5FE0028F7D19FE7FE
:10620000B4E60320042904D800EB4100B0F80100F3
:1062100070470A299BBF01F1FF3100EB41000131BA
:10622000C08884BF00EB410080887047411E00F1A8
:106230000A030020420842EAC01011F8012F52FA66
:1062400080F08B42C0B2F5D1704700002DE9F047D5
:10625000064610F8013B202BFAD06A4D8E600024D0
:10626000335DC3B12F2B16D05C2B02D10020BDE8CB
:10627000F087A3F12200C0B21D2803D825FA00F050
:10628000C007F3D403F0BF003C28EFD0203B5E2BC7
:10629000ECD80134E4E733191846074610F8015BDF
:1062A000202DFAD02F2DF8D017604CB113F8012D06
:1062B0002E2A01D0202A01D1013CF6E7FF2CD5DCA3
:1062C0004FF02033C1F811304C60C1F80D304B61F4
:1062D0004FF0000816F808302E2B01D0202B02D1E9
:1062E00008F10108F6E7B8FA88F04009651E6B1C52
:1062F00002D0735D2E2B14D14FF0000907274A46B8
:10630000CA464FF0080EA04568DA16F80830202B70
:1063100003D02E2B07D1A84512D0002008F1010888
:10632000F1E7013DE3E7222B08D07C2B06D0A3F157
:106330002A0CBCF1050F0AD82D2B12D0A8455BD131
:106340000A2F4AD00A2708224FF0100EE6E7A3F1E1
:106350003A0CBCF1050FF1D9A3F15B0CBCF1020FB3
:10636000ECD9A3F1210CBCF15D0FE7D8A845E7D02B
:10637000BA4230D8A3F1610CBCF1190F1AD8203BF6
:106380004EEA0909DBB25FFA89F902F1010C5FFA02
:106390008CFC0A44BCF1060F537301D881F80CC081
:1063A0006246BBE7A84518DCA8460A2708224FF03A
:1063B000100EB2E7A3F1410CBCF1190F98BF4EEAE1
:1063C0000A0AE2E70B7B0120087019447E234B7315
:1063D00031238B734BE70A2FE4D100204B7B202B1A
:1063E0003FF444AF0028EDD01AEA090F18BF4FF070
:1063F000020981F800903AE7BA42ECD800205F2306
:10640000C3E700BF010100312DE9F84391F80C907A
:1064100006460C4602257E2701F10D086168A26838
:106420006B189BB21144914206D012F8010B03EB9A
:10643000431343409BB2F6E7B9F1030F28BF4FF077
:10644000030909F10402D2B203F00F01A018013AC6
:106450000929D2B294BF30313731914541734FEAA7
:106460001313F1D104EB090300215F733046FFF7EA
:10647000CCFC01213046FFF7A9FC014628B9707811
:10648000B0FA80F04009BDE8F88303786BB1C37AB5
:106490001B07EED40B22404602F082FC0028E8D114
:1064A0000135ADB2642DB9D1EDE70120EBE7000075
:1064B0002DE9F04F2DED028B8BB00D4606930B7836
:1064C000079013F0700F174605D100200BB0BDECFC
:1064D000028BBDE8F08F079B1B78002BF5D153682A
:1064E000059313789C071FBF059B0C330D22B3FB4C
:1064F000F2F31ABF0133DBB20123002128460393D4
:10650000FFF783FC07F10D034FF0000B08EE103A84
:10651000DA465C465E46CDF810B0D9466B6901217B
:106520002846C3F34F18FFF751FC0346002871D1EA
:106530006B78002BC9D1069B9A05C6D503F00303DF
:10654000013B012BC1D8049B002C08BF4346049398
:10655000039B9C42C0F0F180B9F1000F40F00A812A
:10656000049B28465901FFF750FC0028ADD0039B3F
:1065700003F1FF395FFA89F94E464FF0000A4FF0F8
:106580000F08002E00F00D8100212846FFF71EFCA9
:106590000446002899D0AA6892F824304E4543F06A
:1065A00001030CBF46F0400BB34682F8243080F85C
:1065B00000B080F80B8080F80CA007F10D00FFF709
:1065C00035FE84F81AA0607384F81BA00BF01F033B
:1065D0000D22013BD7F808C0534300220599994288
:1065E00040F2D0801CF80310042A5FFA82FE02F108
:1065F000010000F2CD8004EB4202A2F801100D2848
:1066000003F101030246E9D1013EF6B2B9E74FF0CA
:10661000010983E70278E52A00D07AB90499002CB1
:1066200008BF4146049103998C423CBF0134E4B257
:10663000002A80D0E52A05D100266FE703998C4215
:1066400038BF00242E2AF7D0D97A0F294AD116BB99
:1066500012F040063FF462AF02F01F0693F80DB04F
:10666000B2460D220AF1FF3802FB08F8059A4245AE
:10667000E2D9A2EB08020892002202EB080109917C
:106680001846D1B2FFF7BEFD08998A420DD1002805
:1066900018BF002642E70AF1FF3A5FFA8AFA52452C
:1066A000CAD15A7B5A45DCD0C6E7FF28C4D85FFA66
:1066B00080FEAEF141011929B9689CBF0EF120009E
:1066C0005FFA80FE08460999415CA1F1410CBCF1DA
:1066D000190F9CBF2031C9B27145ADD101320D2ACD
:1066E000CBD11BE70807A7D45EB1BAF1010F7FF445
:1066F000ECAE1846FFF79AFD58457FF4E6AEB1467A
:106700000EE018EE101A0B22184602F049FB002882
:106710007FF404AF97F8009019F001097FF477AF88
:10672000069B19053FF5D1AE069B0798CDF8009062
:1067300042462946FFF7ACFBC8E600212846FFF792
:1067400045FBA0B96B78002B7FF4BFAE2846FFF75E
:1067500029FA00283FF4B9AEAB681B79012B3FF64C
:10676000FBAE039B1034E4B2A342EFD8F4E601344D
:10677000E4B2EDE639462846FFF746FE00287FF4EE
:10678000EFAEA2E614BF4FF0FF31002189B22BE734
:10679000BEF10A0F94BF04EB420204EB4002918069
:1067A0002DE731462846D5F81480FFF70FFB044645
:1067B00000283FF48AAE2022314602F00FFBD7F8C2
:1067C0000D302360D7F811306360B7F8153023819E
:1067D000FB7DA3723B7803F0180323730F4B1B68F8
:1067E0009BB104F10E0104F110009847238A6382E3
:1067F0002383E389E382AA6892F8243043F00103FB
:10680000C8F34F1882F824308EE7212323742823FD
:1068100063740823A673E373E8E700BFB4E60320BC
:1068200013B50446084659B1019102F00DFB2368E7
:106830000199DB680246204602B0BDE810401847C7
:1068400002B010BD37B50378DA07044620D5436897
:10685000816800F10C021868019200F088FB019A2F
:10686000054618B90025284603B030BD23789B079C
:1068700004D4237823F001032370F4E7D4E9013032
:1068800019690144186800F072FB0028F1D1E9E7AA
:106890000125E8E770B583688B4204460E4615462D
:1068A00009D0FFF7CFFF08B9002070BD6B070AD5EC
:1068B00000232370A660227805F0030520461543C7
:1068C00000F80C5BF1E7636804F10C0218683146CC
:1068D00000F0C4FA0028EBD1E6E783794069023979
:1068E000994008447047012970B505460C46164684
:1068F00002D84FF0FF3070BDC3698B42F9D3C37922
:10690000202B16D18169022201EBD41100F50C7005
:10691000FFF7C0FF0028ECD004F07F0450F82430CB
:1069200023F07043EA699A4226BF336001200020B9
:10693000E1E7102BDDD1C1F307238169022219445D
:1069400000F50C70FFF7A6FF0028D2D0E4B230F8B3
:106950001430E7E7012938B50C46154601D8002068
:1069600038BDC3698B42FAD3C379202B0FD181691B
:10697000032201EBD41100F50C70FFF78BFF002808
:10698000EDD004F07F0440F824500120E8E7102BFC
:10699000E5D1C1F3072381690322194400F50C7086
:1069A000FFF778FF0028DAD0E4B220F81450ECE7C3
:1069B0002DE9F341C4688C4205460E46904601D34A
:1069C000012701E00C460027EB690134A34202D203
:1069D000C7B9EC68F4E7A64214D001AA21462846BC
:1069E000FFF781FF00280DDBEED0019B002BEBD1E0
:1069F00007B1EC606FF0704221462846FFF7AAFF0E
:106A0000074620B90027384602B0BDE8F08116B924
:106A1000C8F80040F7E7224631462846FFF79AFFBC
:106A20000028F5D1EEE773B505460C4601AA2146CC
:106A30002846FFF758FF061E10DB00222146284695
:106A4000FFF788FF50B1EB68A34224BF04F1FF3485
:106A5000EC60019C002EE9D102B070BD0020FBE784
:106A6000012370B50022C3604FF0FF330446C271AA
:106A700000F12406806280F82420C362C0F834024A
:106A800080F83022C0F838320D46B9B1042901D956
:106A9000002070BD11463046FFF7FCFE0028F7D0FD
:106AA00000EB051393F8AE315B06F1D105F11B0144
:106AB00000EB0110D0F80650002DE9D00022294645
:106AC0003046FFF7E7FE0028E2D0B0F80B30B3F510
:106AD000007FDDD1037C022BDAD1C389002BD7D014
:106AE000417B21714B1E63710023A3710926012391
:106AF000994207D0013ECBD0A2795B000132DBB2D4
:106B0000A271F5E7C18A01B9416A2161C3892B44A9
:106B1000A361B0F81120228103EB41032362B0F896
:106B20001110490101F2FF1103EB51236361B0F829
:106B3000132002B9026AE91AA3791144D9404B1C07
:106B4000E36140F6F473994202D80C23E3719FE7A6
:106B50004FF6F473994285BFC36A23621023202342
:106B6000E371012095E700F0CBBA00F0AEBA000067
:106B700070B50E4E0D46144600F0F2FA3368C01A96
:106B80000B4B984208D900F0F3FA0A4B186000F05A
:106B90007BFC00F0E5FA306000F0EAFA80B2401BBE
:106BA000A042D4BF0020012070BD00BFBCE603207E
:106BB000A086010028E7032038B5057A04464DB9C0
:106BC000406800F06BFA63682946187D01F043FBCA
:106BD0000123237238BD10B5037A04466BB14368B4
:106BE0000121187D01F037FB6068FF21FFF7BBFF33
:106BF000606800F067FA0023237210BDF8B5044600
:106C00000D46164600F0B4FA87B26068FFF7ADFF94
:106C1000FF2860720ED14FF47A7239462046FFF792
:106C2000A7FF0028F1D0552320462370FFF7D3FF9C
:106C30000020F8BDFE2801D05023F5E760683246F9
:106C4000294600F047FA607208B16023ECE76068FB
:106C5000FFF78BFF6068FFF788FF0120E9E770B559
:106C600004460E4600F084FA85B232462946204694
:106C7000FFF77EFF30B96068FFF777FFFF28F4D198
:106C8000012070BD0020FCE7F7B5037A01920446AD
:106C90000D460BB9FFF790FF25B14FF496712046D2
:106CA000FFF7DDFF606845F04001FFF75CFF03265A
:106CB00001AFB95D6068FFF756FF013EF9D2002DC4
:106CC00060680CBF95218721FFF74DFF6068FFF7D3
:106CD0004CFF0B256068FFF748FF0306607203D581
:106CE000013D15F0FF05F5D103B0F0BD70B50446C8
:106CF0000D46164637210022FFF7C6FF32462946C9
:106D00002046BDE87040FFF7BFBF00002DE9F0410D
:106D100000250572057085724160044690461E4646
:106D200000F026FA41460746606800F0BBF9636848
:106D3000494A1D720125DA601D822046FFF73CFF9B
:106D400063682946187D01F086FA0A256068FF21EC
:106D5000013DFFF708FF15F0FF05F7D163682946ED
:106D6000187D01F078FA0A25002211462046FFF727
:106D70008BFF0128804618D0013D15F0FF0507D193
:106D8000202320462370FFF726FF0020BDE8F08176
:106D90006068FD21FFF7E7FE4FF402786068FFF7B7
:106DA000E4FEB8F10108F9D1DEE74FF4D57208210D
:106DB0002046FFF769FF052814D184F80A800025D2
:106DC000BFB22A4629212046FFF790FF0246D8B1DC
:106DD0004FF4FA6239462046FFF7CAFE0028F0D089
:106DE0004323CEE704256068FFF7BFFE013D15F0A1
:106DF000FF056072F7D1AA2804D10223A3724FF0D5
:106E00008045DDE72523BCE7A37A022B18D13A2180
:106E10002046FFF739FF08B13723B2E76068FFF774
:106E2000A4FE00F0C000C02804BF0323A372606862
:106E3000FFF79BFE6068FFF798FE6068FFF795FE1E
:106E40002046FFF7C8FE63683079B168B2891A82BC
:106E50001872D960012099E790D0030038B5837A81
:106E6000032B18BF490215460A4611210446FFF7B5
:106E70000BFF30B1302323702046FFF7ACFE002516
:106E80000BE029464FF400722046FFF7B7FE054697
:106E90000028F1D02046FFF79EFE284638BD10B5E9
:106EA000837A032B0A4618BF4A0212210446FFF7D1
:106EB000EBFE30B1312320462370FFF78CFE00201B
:106EC00010BD0120FCE710B500220C210446FFF79D
:106ED000DBFE30B1282320462370FFF77CFE002024
:106EE00010BD2046FFF777FE0120F9E7F8B504460C
:106EF00016461F46FFF7D3FF68B10025ABB29F428D
:106F000006EB452109D94FF400722046FFF776FEC3
:106F100001350028F2D10020F8BD2046BDE8F84038
:106F2000FFF7D1BF38B5044615464068FFF71BFE92
:106F30004FF400726068294600F0E6F86068FF21AF
:106F4000FFF711FE6068FF21FFF70DFE6068FFF795
:106F50000CFE607200F01F00052806D05723204663
:106F60002370FFF738FE002038BD0120FCE770B524
:106F7000837A032B18BF490215460A461821044696
:106F8000FFF782FE064630B1322323702046FFF71A
:106F900022FE00251FE02A46FE212046FFF7C2FF01
:106FA0000028F3D04FF4FA612046FFF758FE05465B
:106FB00008B95A23E9E732460D212046FFF764FE5F
:106FC00008B12923E1E76068FFF7CFFD0028F8D179
:106FD0002046FFF700FE284670BD13B501914FF41F
:106FE000FA610446FFF73BFE019A30B95B23237038
:106FF0002046FFF7F0FD002005E0FC212046FFF7CA
:1070000091FF0028F4D002B010BD10B5837A032B95
:107010000A4618BF4A0219210446FFF735FE30B16F
:10702000332320462370FFF7D6FD002010BD01203A
:10703000FCE738B54FF4FA610446FFF710FE054649
:1070400030B9562323702046FFF7C5FD284638BDCA
:107050006068FD21FFF787FDF5E7F8B504461646A1
:107060001F46FFF7D2FF70B10025BD4206EB452158
:10707000204604D0FFF7B1FF28B10135F5E7BDE8A0
:10708000F840FFF7D6BF2046FFF7A5FD0020F8BD6A
:10709000014B01221A707047C0E60320011D0068F1
:1070A00000F030BE10B504460175006800F0FCFD2C
:1070B000207D012101F0BEF8207D0121BDE81040B6
:1070C00001F0C9B8006800F003BE0068FF2100F0BD
:1070D00087BE000037B51346074A00920025074CCB
:1070E000006825700A46294600F080FE2378002BB0
:1070F000FCD0002003B030BD91700B00C0E603202F
:10710000006800F06DBE000037B51346064A0092D5
:107110000025064C006825702A4600F067FE23789B
:10712000002BFCD003B030BD91700B00C0E60320F3
:1071300008B5024B1B685B6C019308BD4802030055
:1071400008B5024B1B685B68019308BD1802030079
:1071500008B5024B1B68DB68019308BD18020300E9
:1071600008B5024B1B681B69019308BD1802030098
:1071700008B5024B1B685B69019308BD1802030048
:1071800008B5024B1B689B68019308BD2C020300E5
:1071900008B5024B1B68DB68019308BD2C02030095
:1071A00008B5024B1B681B69019308BD2C02030044
:1071B00008B5024B1B68DB68019308BD2802030079
:1071C00008B5024B1B689B69019308BD28020300A8
:1071D00008B5024B1B68DB69019308BD2802030058
:1071E00008B5024B1B681B6A019308BD2802030007
:1071F00008B5024B1B685B6A019308BD28020300B7
:1072000008B5024B1B689B6A019308BD2802030066
:1072100008B5024B1B68DB6A019308BD2802030016
:1072200008B5024B1B681B6B019308BD28020300C5
:1072300008B5024B1B685B6B019308BD2802030075
:1072400008B5024B1B681B6C019308BD28020300A4
:1072500008B5024B1B681B6D019308BD2802030093
:1072600008B5024B1B685B69019308BD640203000B
:1072700008B5024B1B689B68019308BD68020300B8
:1072800008B5024B1B68DB68019308BD6802030068
:1072900008B5024B1B681B68019308BD3002030050
:1072A00008B5024B1B685B69019308BD30020300FF
:1072B00008B5024B1B68DB69019308BD300203006F
:1072C00008B5024B1B681B6A019308BD300203001E
:1072D00008B5024B1B685B6A019308BD30020300CE
:1072E00008B5024B1B689B6A019308BD300203007E
:1072F00008B5024B1B689B6B019308BD300203006D
:1073000008B5024B1B68DB6B019308BD300203001C
:1073100008B5024B1B681B6C019308BD30020300CB
:1073200008B5024B1B685B6C019308BD300203007B
:1073300008B5024B1B68DB68019308BD3C020300E3
:1073400008B5024B1B681B69019308BD3C02030092
:1073500008B5024B1B685B69019308BD3C02030042
:1073600008B5024B1B689B69019308BD3C020300F2
:1073700008B5024B1B68DB69019308BD3C020300A2
:1073800008B5024B1B681B6A019308BD3C02030051
:1073900008B5024B1B689B6A019308BD3C020300C1
:1073A00008B5024B1B681B6C019308BD3C0203002F
:1073B00008B5024B1B681B68019308BD4C02030013
:1073C00008B5024B1B685B68019308BD4C020300C3
:1073D00008B5024B1B681B69019308BD4C020300F2
:1073E00008B5024B1B685B69019308BD4C020300A2
:1073F00008B5024B1B689B69019308BD4C02030052
:1074000008B5024B1B68DB69019308BD4C02030001
:1074100008B5024B1B681B6A019308BD4C020300B0
:1074200008B5024B1B685B6A019308BD4C02030060
:1074300008B5024B1B685B68019308BD200203007E
:1074400008B5024B1B685B69019308BD200203006D
:1074500008B5024B1B68DB6A019308BD20020300DC
:1074600008B5034B1B68D3F88830019308BD0000B2
:107470002002030008B5034B1B68D3F89430019336
:1074800008BD00002002030008B5024B1B689B6882
:10749000019308BD4402030008B5024B1B68DB6B77
:1074A000019308BD4402030008B5024B1B685B68EA
:1074B000019308BD4002030008B5024B1B689B689E
:1074C000019308BD4002030008B5024B1B68DB684E
:1074D000019308BD4002030008B5024B1B681B69FD
:1074E000019308BD4002030008B5024B1B685B69AD
:1074F000019308BD4002030008B5024B1B689B695D
:10750000019308BD4002030008B5024B1B68DB690C
:10751000019308BD4002030008B5024B1B681B6ABB
:10752000019308BD4002030008B5024B1B681B6BAA
:10753000019308BD4002030008B5024B1B685B6B5A
:10754000019308BD4002030008B5024B1B681B6C89
:10755000019308BD4002030008B5024B1B685B6C39
:10756000019308BD4002030008B5024B1B681B686D
:10757000019308BD1C02030008B5024B1B685B6841
:10758000019308BD1C02030008B5024B1B685B6A2F
:10759000019308BD1C02030008B5024B1B681B6C5D
:1075A000019308BD1C02030008B5024B1B685B6C0D
:1075B000019308BD1C0203000021FFF741BF00003A
:1075C000024800230360FFF7B3BD00BFC4E60320F9
:1075D000002240681146FFF79FBF00224068114615
:1075E000FFF7AABF40680022FFF79EBF4068002255
:1075F00081F00101FFF788BF002340681A46194651
:10760000FFF77ABF002340681A461946FFF76CBFA0
:10761000002240681146FFF75FBF00224068114614
:10762000FFF74ABF406800220221FFF74DBF002349
:1076300040681A46FFF738BF024B03225A60024ADD
:107640001A607047C8E60320BC920B007047F8B57B
:10765000064615460C468F18BC4206D0336814F80F
:10766000011B9B6830469847F6E72846F8BD007C2A
:107670000022FFF7B5BD007C0021FFF7B9BD007CFB
:107680000021FFF7BDBD007C0021FFF7C1BD007CDC
:107690000021FFF7C5BD10B514210446FCF7FFFC1F
:1076A000204610BD38B5044615464FF47A730022C3
:1076B000C4E90123094B2174084623602946FFF7DA
:1076C000BFFDBF3008D16B69DB0705D56868FFF7E0
:1076D00053FFE868FFF750FF204638BDF8920B00D3
:1076E0000023007C1A461946FFF762BD7FB50022D1
:1076F0001423CDE90122ADF804300B788DF8083061
:107700004B680393CB680493007C0B7A059301A923
:10771000FFF79EFD07B05DF804FB1FB5003B8DF839
:1077200000104FF06401039118BF012369460192D4
:107730008DF80830FFF7DAFF05B05DF804FB012390
:10774000FFF7EBBF007C0022FFF73ABDC9B2FFF79D
:10775000F9BF007C0022FFF73BBD0121FFF7F9BF15
:10776000704710B518210446FCF799FC204610BD5F
:10777000F0B5037D062B8DB00E4600F104074FF0E7
:10778000000412D000F1080515F8011D0A22304648
:1077900000F04DF9AF42044419D0002CF4D02E2152
:1077A000304600F029F90444EEE72F236A463946B3
:1077B0000A208DF80040FFF753FD684601F044FBB6
:1077C00033680246DB6869463046984704462046DF
:1077D0000DB0F0BD10B5054B0446112240F8043B36
:1077E000002101F0FBFA204610BD00BF20930B00E2
:1077F0000346074A10B543F8042B01F1100251F873
:10780000044B43F8044B9142F9D10A781A7010BD29
:1078100020930B0010B59DF8084044EA032343EA87
:10782000024242EA016104234160037510BD000079
:1078300007B5064B0360CB7800938B784A780978BC
:10784000FFF7E8FF03B05DF804FB00BF20930B00D7
:10785000014B024A1A607047D0E603202C930B00BC
:10786000002340681A46FFF71FBE4068002202212D
:10787000FFF72ABE002240681146FFF71DBE002216
:1078800040681146FFF728BE002340681A46194693
:10789000FFF72ABE002340681A461946FFF72CBEA0
:1078A00040680021FFF750BE40680021FFF754BE3A
:1078B0004068002281F00101FFF726BE40680022E7
:1078C000FFF732BE002240681146FFF735BE0022A6
:1078D00040681146FFF720BE2DE9F04395B01446ED
:1078E0000D460746FFF776FF00211C220DA80091E8
:1078F00001F074FA40230C9320466B460CAA002139
:10790000FFF7BEFC044600284BD1024601216868FF
:10791000FFF7E2FD0221804622466868FFF7DCFDA2
:10792000009E81462146002E3BD0002939D1736844
:10793000022B03D00A2B11D0F669F4E7B8F1000F3F
:10794000FAD0716906A8043107ADFFF771FF0FCDBA
:107950003C1D0FC42B6823704146EDE7B9F1000FC1
:10796000EAD07469102201A801F038FA06238DF8D4
:10797000143001AD04F108031834186859682A4618
:1079800003C20833A3421546F7D101A906A807ADE3
:10799000FFF72EFF0FCD3C1D0FC42B682370494607
:1079A000CAE70098FFF764FC384615B0BDE8F083DD
:1079B000024B034A1A6000225A607047D4E6032043
:1079C00038930B00F8B506460D468F180024BD42CB
:1079D0000CD0336815F8011B9B6830469847031E8E
:1079E00001DB1C44F3E7002C08BF1C462046F8BD11
:1079F00008B5FEF715FF08BD03689B68184738B542
:107A00000D210546FFF7F8FF0A2104462846FFF737
:107A1000F3FF204438BD38B50546FEF701FF0446A4
:107A20002846FFF7ECFF204438BDFFF7F4BF30B520
:107A30008BB00023012A8DF8243098BF0A2209ACAC
:107A40000D46B1FBF2F101FB125303F0FF03092BCA
:107A500094BF30333733DBB2AA4204F8013DEFD98B
:107A60002146FEF7DDFE0BB030BD00002DE9F74FDB
:107A700055EC104B06460F4610EE102A10EE100A79
:107A80002B46294601F0D8F840B153493046FEF75D
:107A9000C7FE8246504603B0BDE8F08F25F000498E
:107AA0004E4B4FF0FF322046494601F0C5F848B929
:107AB0004A4B4FF0FF322046494601F09FF808B983
:107AC0004749E3E7474B4FF060422046294601F023
:107AD000A9F808B14449D9E7444B4FF06042204629
:107AE000294601F081F80028F4D100220023204625
:107AF000294601F079F8D0B12D213046FFF77CFFFF
:107B000005F1004382461D463949DFF8EC904FF0FD
:107B1000000B00204FF000085FFA8BF39F4208D95A
:107B200042464B4600F018FF0BF1010BF4E782468A
:107B3000EAE722462B4600F02FFC0D46044601F0F2
:107B4000B9F8804600F064FD02460B4620462946FF
:107B500000F020FC0A2204460D4630464146FFF75D
:107B600066FF8244002F95D02249DFF88C90304682
:107B7000FEF756FE4FF000088244002F8AD042469E
:107B80004B462046294600F0BDFD04460D4601F057
:107B900069F8B0F1000B1CDA2D213046FFF72CFFFD
:107BA000CBF1000103460A2230460193FFF73FFF65
:107BB000019B18448244584600F03AFD02460B46A9
:107BC0002046294600F0E6FB013F04460D46FFB281
:107BD000D3E759460023E6E76C930B00FFFFEF7FE6
:107BE00070930B00FFFFEF4174930B00FFFFEFC199
:107BF0000000E03F78930B000000244038B50446B5
:107C000010EE100ACDB200F025FD41EC100B294614
:107C10002046BDE83840FFF729BF2DE9F04186B086
:107C200000AF05460E46381D142114463B60FFF791
:107C3000ABFC13280ED8391D2846FEF7F1FD04468B
:107C40001EB12846FFF7DBFE044420461837BD4628
:107C5000BDE8F08100F1080323F00703E846ADEB2F
:107C6000030D2246411C3B686846FFF78DFC6946C0
:107C70002846FEF7D5FD0446C546E1E7014B002244
:107C80009A607047DCE603200021FFF749BB002122
:107C9000FFF73EBB10B5044608462170FFF708FB0E
:107CA00000236360204610BD13B504460078FFF73B
:107CB000EEFF58B9207801904FF6FF71FFF7E8FA10
:107CC000019802B0BDE81040FFF7DEBF02B010BD62
:107CD0000078FFF7D9BF0000400830B518600024D5
:107CE00018688842E5B206D90134082C02D0400851
:107CF0001860F5E70725024B5B5D137030BD00BFD0
:107D00007A930B002DE9F04306468FB000780C46BD
:107D1000FFF7BDFF00281BDB35781422002109A8DE
:107D200001F05CF80B23002209A92846ADF82430A5
:107D3000FFF7CEFA9DF82D3013B19DF82C5055B1B8
:107D40000027B946B846012523795DB1C3B10020AB
:107D50000FB0BDE8F083DDF830809DF834909DF8D9
:107D60003570F1E7002B35D1A368434508D18DF874
:107D700020908DF82170BDF82020A3899A42E6D08A
:107D80000023A1688DF80F300A9804AB0DF10F02A3
:107D9000FFF7A2FF217985B989B9A36843450ED3BE
:107DA0008DF820908DF82170BDF82020A3899A428B
:107DB00005D1049B434502D1C9E70029F9D100232D
:107DC0000193637B00939DF80F20237B3078FFF7AE
:107DD00097FABCE7CDE900552B462A460121F5E785
:107DE00008B50078FFF75CFAC0B208BD30B587B0BF
:107DF00004460A9D00950078FFF772FA3DB9207895
:107E000002A9FFF775FA9DF81430DB07F7D407B025
:107E100030BD0000054B02221A60054B054A9A60EE
:107E20000020C3E90000FFF703BB00BFF8E6032012
:107E3000ECE603200000FFFF024B1A68024B1A60B9
:107E4000704700BF44E10320FCE603207047417403
:107E5000704708B5007CFFF79BFA20EAE07008BD88
:107E600008B5007CFFF76CFA20EAE07008BD08B5A1
:107E7000007CFFF775FA40EAE07008BD08B5007CA9
:107E8000FFF766FA40EAE07008BD007CFFF770BAC1
:107E900037B5457C04462DB1207C03B0BDE83040A9
:107EA000FFF746BA007C0191FFF772FA00280199AA
:107EB000F2DC284603B030BD10B514210446FCF7AF
:107EC000EEF8204610BD000010B54FF47A7304465A
:107ED000084611460022C4E90123044B2360012314
:107EE00020746374FFF75CFA204610BDA8930B0062
:107EF000417470477047704708B50021007CFFF758
:107F000077FA40EAE07008BD08B50121007CFFF770
:107F10006FFA40EAE07008BD08B5007CFFF760FA30
:107F200020EAE07008BD08B5007CFFF751FA20EAAE
:107F3000E07008BD13B50446007C0191FFF750FACC
:107F40000028019901DC607C20B1207CFFF758FA01
:107F500020EAE07002B010BD007CFFF759BA10B5FE
:107F600014210446FCF79BF8204610BD10B54FF4D1
:107F70007A73044608460021C4E90113044B2360C8
:107F80000123207463741146FFF712FA204610BDD6
:107F9000D8930B00007C0022FFF712BA007CFFF799
:107FA0003FBAFFF7FBBF10B514220446002100F0D2
:107FB00015FF204610BD000010B50F4C88B003A877
:107FC000FFF7F1FF2178BFF35B8F11F001010FD1B3
:107FD00020460191FCF765F8019948B103AA0748CA
:107FE000FFF7C4FF2046FCF761F8054800F0D2FE19
:107FF000024808B010BD00BF00E7032004E70320DB
:10800000F57E0B00002240681146FFF765BA00229A
:1080100040681146FFF780BA002240681146FFF71A
:108020008BBA40680022FFF77FBA4068002281F0D7
:108030000101FFF769BA002340681A461946FFF7A5
:108040005BBA002340681A461946FFF74DBA002272
:1080500040681146FFF730BA406800220221FFF75E
:1080600033BA002340681A46FFF71EBA024B0422B7
:108070005A60024A1A60704718E7032008940B0000
:10808000014B1860704700BF48E1032008B50B4B57
:1080900043B1FFF791FF03681B699847002801DD92
:1080A000AFF30080064B43B100F04AF903681B6947
:1080B0009847002801DDAFF3008008BD00000000F4
:1080C0000000000008B5FFF7E1FFFFF751F8014B92
:1080D000186008BD28E703200548064A064908B588
:1080E000121A00F06DFE054B054A1A6008BD00BF6C
:1080F00000F4032004F4032004950B0000F4032093
:108100001E1C279A07B5002300931A466FF07701CB
:10811000FFF7B0F903B05DF804FB000007B5438832
:108120000A2B08D0502B0BD1094B1B684BB103B065
:108130005DF804EB1847FFF7E5FF03B05DF804FBBB
:10814000002300931A466FF07701FFF793F9F4E7E5
:1081500024E7032010B512480021FFF725FA114B40
:108160001A68114B9A42114B0CBF012200221A705F
:1081700001D0FFF7B1FFFEF7E3FF044600F036FE43
:108180000B4B13B12046AFF3008000210848FFF7E6
:1081900083F9BDE8104007480021FFF761B900BF2F
:1081A00081800B0000F403201E1C279A20E7032087
:1081B000000000001D810B00232813B502D9002008
:1081C00002B010BDA0F10B03022B1AD8174C217876
:1081D000BFF35B8F11F001010BD120460191FBF73A
:1081E00060FF019928B11248FFF754FD2046FBF7C4
:1081F0005DFF0F4B1878FFF763F80028DFD10120EF
:10820000DEE7012809D800F05BF80021007CFFF7C9
:108210000FF880F00100C0B2D2E709380128EED88B
:1082200000F08EF8007CFFF7ABF8F2E7B0E1032036
:10823000B4E10320232838B504460D460AD8FF29A7
:1082400008D0FFF7B9FF28B129462046BDE83840DD
:10825000FEF796BF38BD38B504460D46FEF798FFC9
:10826000FF2810D0062804D84D2323FA00F0C307B6
:1082700009D42046FFF7A0FF28B129462046BDE8D3
:108280003840FEF78DBF38BD7047000038B50A4B47
:1082900003600123044643610849202000F074F87C
:1082A000202560600549A560284600F06DF8C4E906
:1082B0000305204638BD00BF180001003C940B00A8
:1082C00030B50E4D2978BFF35B8F11F0010487B0F4
:1082D00011D12846FBF7E5FE68B16846FFF7D6FFE7
:1082E0006A4621460648FFF7DDF92846FBF7DEFE21
:1082F000044800F04FFD024807B030BD2CE70320D2
:1083000030E7032089820B007047000038B504462F
:1083100014252A46002100F061FD258040250749EB
:1083200025812846258200F02FF804496060284600
:1083300000F02AF8E060204638BD00BF3C940B00F6
:1083400030B50E4D2978BFF35B8F11F0010487B073
:1083500011D12846FBF7A5FE68B101A8FFF7D6FFAB
:1083600001AA21460648FFF7AFFD2846FBF79EFE0F
:10837000044800F00FFD024807B030BD44E7032079
:1083800048E7032009830B00FBF787BE81F000411B
:1083900002E000BF83F0004330B54FEA41044FEAEA
:1083A000430594EA050F08BF90EA020F1FBF54EA85
:1083B000000C55EA020C7FEA645C7FEA655C00F021
:1083C000E2804FEA5454D4EB5555B8BF6D420CDDF2
:1083D0002C4480EA020281EA030382EA000083EA75
:1083E000010180EA020281EA0303362D88BF30BD15
:1083F00011F0004F4FEA01314FF4801C4CEA11316B
:1084000002D0404261EB410113F0004F4FEA0333C9
:108410004CEA133302D0524263EB430394EA050F54
:1084200000F0A780A4F10104D5F1200E0DDB02FAC3
:108430000EFC22FA05F2801841F1000103FA0EF257
:10844000801843FA05F359410EE0A5F120050EF11D
:10845000200E012A03FA0EFC28BF4CF0020C43FA4E
:1084600005F3C01851EBE37101F0004507D54FF05B
:10847000000EDCF1000C7EEB00006EEB0101B1F5AB
:10848000801F1BD3B1F5001F0CD349085FEA3000F1
:108490004FEA3C0C04F101044FEA445212F5800FFC
:1084A00080F09A80BCF1004F08BF5FEA500C50F199
:1084B000000041EB045141EA050130BD5FEA4C0C7C
:1084C000404141EB0101013C28BFB1F5801FE9D2D9
:1084D00091F0000F04BF01460020B1FA81F308BFFC
:1084E0002033A3F10B03B3F120020CDA0C3208DDC8
:1084F00002F1140CC2F10C0201FA0CF021FA02F1A3
:108500000CE002F11402D8BFC2F1200C01FA02F112
:1085100020FA0CFCDCBF41EA0C019040E41AA2BF37
:1085200001EB0451294330BD6FEA04041F3C1CDAFF
:108530000C340EDC04F11404C4F1200220FA04F01F
:1085400001FA02F340EA030021FA04F345EA0301C9
:1085500030BDC4F10C04C4F1200220FA02F001FA8B
:1085600004F340EA0300294630BD21FA04F029460D
:1085700030BD94F0000F83F4801306BF81F48011A6
:108580000134013D4EE77FEA645C18BF7FEA655C19
:1085900029D094EA050F08BF90EA020F05D054EAEB
:1085A000000C04BF1946104630BD91EA030F1EBFF0
:1085B0000021002030BD5FEA545C05D140004941F4
:1085C00028BF41F0004130BD14F580043CBF01F5E7
:1085D000801130BD01F0004545F0FE4141F47001CD
:1085E0004FF0000030BD7FEA645C1ABF19461046A8
:1085F0007FEA655C1CBF0B46024650EA013406BFA9
:1086000052EA033591EA030F41F4002130BD00BF67
:1086100090F0000F04BF0021704730B54FF4806424
:1086200004F132044FF000054FF0000150E700BFA5
:1086300090F0000F04BF0021704730B54FF4806404
:1086400004F1320410F0004548BF40424FF00001F1
:108650003EE700BF42004FEAE2014FEA31014FEA34
:1086600002701FBF12F07F4393F07F4F81F0605183
:10867000704732F07F4208BF704793F07F4F04BFCE
:1086800041F40021704730B54FF4607401F00045AB
:1086900021F000411CE700BF50EA010208BF70470B
:1086A00030B54FF000050AE050EA010208BF7047FC
:1086B00030B511F0004502D5404261EB41014FF465
:1086C000806404F132045FEA915C3FF4D8AE4FF06D
:1086D00003025FEADC0C18BF03325FEADC0C18BF50
:1086E000033202EBDC02C2F1200300FA03FC20FAA1
:1086F00002F001FA03FE40EA0E0021FA02F11444EE
:10870000BDE600BF70B54FF0FF0C4CF4E06C1CEA06
:1087100011541DBF1CEA135594EA0C0F95EA0C0F77
:1087200000F0DEF82C4481EA030621EA4C5123EAEA
:108730004C5350EA013518BF52EA033541F4801119
:1087400043F4801338D0A0FB02CE4FF00005E1FBCC
:1087500002E506F00042E0FB03E54FF00006E1FB16
:1087600003569CF0000F18BF4EF0010EA4F1FF0459
:10877000B6F5007F64F5407404D25FEA4E0E6D4199
:1087800046EB060642EAC62141EA55514FEAC520AA
:1087900040EA5E504FEACE2EB4F1FD0C88BFBCF526
:1087A000E06F1ED8BEF1004F08BF5FEA500E50F1D7
:1087B000000041EB045170BD06F0004646EA01019D
:1087C00040EA020081EA0301B4EB5C04C2BFD4EBCF
:1087D0000C0541EA045170BD41F480114FF0000EC8
:1087E000013C00F3AB8014F1360FDEBF002001F036
:1087F000004170BDC4F10004203C35DA0C341BDCB0
:1088000004F11404C4F1200500FA05F320FA04F081
:1088100001FA05F240EA020001F0004221F00041B5
:1088200010EBD37021FA04F642EB06015EEA430E28
:1088300008BF20EAD37070BDC4F10C04C4F1200558
:1088400000FA04F320FA05F001FA04F240EA02000B
:1088500001F0004110EBD37041F100015EEA430EDC
:1088600008BF20EAD37070BDC4F1200500FA05F2FC
:108870004EEA020E20FA04F301FA05F243EA02037B
:1088800021FA04F001F0004121FA04F220EA02008A
:1088900000EBD3705EEA430E08BF20EAD37070BDD0
:1088A00094F0000F0FD101F00046400041EB0101B0
:1088B00011F4801F08BF013CF7D041EA060195F092
:1088C000000F18BF704703F00046520043EB03034C
:1088D00013F4801F08BF013DF7D043EA0603704739
:1088E00094EA0C0F0CEA135518BF95EA0C0F0CD044
:1088F00050EA410618BF52EA4306D1D181EA03018A
:1089000001F000414FF0000070BD50EA410606BF83
:108910001046194652EA430619D094EA0C0F02D1C8
:1089200050EA013613D195EA0C0F05D152EA03360D
:108930001CBF104619460AD181EA030101F000412B
:1089400041F0FE4141F470014FF0000070BD41F074
:10895000FE4141F4780170BD70B54FF0FF0C4CF44E
:10896000E06C1CEA11541DBF1CEA135594EA0C0F6D
:1089700095EA0C0F00F0A7F8A4EB050481EA030EBA
:1089800052EA03354FEA013100F088804FEA0333A1
:108990004FF0805545EA131343EA12634FEA02226F
:1089A00045EA111545EA10654FEA00260EF0004130
:1089B0009D4208BF964244F1FD0404F5407402D282
:1089C0005B084FEA3202B61A65EB03055B084FEA13
:1089D00032024FF480104FF4002CB6EB020E75EB10
:1089E000030E22BFB61A754640EA0C005B084FEA38
:1089F0003202B6EB020E75EB030E22BFB61A7546B5
:108A000040EA5C005B084FEA3202B6EB020E75EBFF
:108A1000030E22BFB61A754640EA9C005B084FEA77
:108A20003202B6EB020E75EB030E22BFB61A754684
:108A300040EADC0055EA060E18D04FEA051545EA73
:108A400016754FEA06164FEAC30343EA52734FEA1C
:108A5000C2025FEA1C1CC0D111F4801F0BD141EA95
:108A600000014FF000004FF0004CB6E711F4801FFA
:108A700004BF01430020B4F1FD0C88BFBCF5E06FDA
:108A80003FF6AFAEB5EB030C04BFB6EB020C5FEAEA
:108A9000500C50F1000041EB045170BD0EF0004E3F
:108AA0004EEA113114EB5C04C2BFD4EB0C0541EA71
:108AB000045170BD41F480114FF0000E013C90E66E
:108AC00045EA060E8DE60CEA135594EA0C0F08BF32
:108AD00095EA0C0F3FF43BAF94EA0C0F0AD150EA31
:108AE00001347FF434AF95EA0C0F7FF425AF1046C4
:108AF00019462CE795EA0C0F06D152EA03353FF4EC
:108B0000FDAE1046194622E750EA410618BF52EA68
:108B100043067FF4C5AE50EA41047FF40DAF52EA3C
:108B200043057FF4EBAE12E74FF0FF3C06E000BFD9
:108B30004FF0010C02E000BF4FF0010C4DF804CDE6
:108B40004FEA410C7FEA6C5C4FEA430C18BF7FEAA6
:108B50006C5C1BD001B050EA410C0CBF52EA430CD4
:108B600091EA030F02BF90EA020F0020704710F154
:108B7000000F91EA030F58BF994208BF90422CBFE3
:108B8000D8176FEAE37040F0010070474FEA410CDC
:108B90007FEA6C5C02D150EA013C07D14FEA430CFA
:108BA0007FEA6C5CD6D152EA033CD3D05DF8040B6B
:108BB000704700BF8446104662468C46194663469D
:108BC00000E000BF01B5FFF7B7FF002848BF10F174
:108BD000000F01BD4DF808EDFFF7F4FF0CBF0120B9
:108BE00000205DF808FB00BF4DF808EDFFF7EAFF35
:108BF00034BF012000205DF808FB00BF4DF808EDF0
:108C0000FFF7E0FF94BF012000205DF808FB00BFE4
:108C10004DF808EDFFF7CEFF94BF012000205DF86E
:108C200008FB00BF4DF808EDFFF7C4FF34BF01207B
:108C300000205DF808FB00BF4FEA410C7FEA6C5C46
:108C400002D150EA013C0AD14FEA430C7FEA6C5C46
:108C500002D152EA033C02D14FF0000070474FF0BE
:108C6000010070474FEA410212F5001215D211D5EA
:108C70006FF47873B3EB625212D94FEAC12343F019
:108C8000004343EA505311F0004F23FA02F018BF9B
:108C9000404270474FF00000704750EA013005D164
:108CA00011F0004008BF6FF0004070474FF0000027
:108CB000704700BF4A0011D212F5001211D20DD533
:108CC0006FF47873B3EB62520ED44FEAC12343F0D2
:108CD000004343EA505323FA02F070474FF000007C
:108CE000704750EA013002D14FF0FF3070474FF02B
:108CF000000070474FEA4102B2F1E04324BFB3F5F0
:108D0000001CDCF1FE5C0DD901F0004C4FEAC00202
:108D10004CEA5070B2F1004F40EB830008BF20F0E6
:108D20000100704711F0804F21D113F13872BCBFA0
:108D300001F00040704741F480114FEA5252C2F1F5
:108D40001802C2F1200C10FA0CF320FA02F018BF3E
:108D500040F001004FEAC1234FEAD32303FA0CFC91
:108D600040EA0C0023FA02F34FEA4303CCE77FEA20
:108D7000625307D150EA01331EBF4FF0FE4040F46A
:108D80004000704701F0004040F0FE4040F4000019
:108D9000704700BF002301461A46184600F05CB831
:108DA00010B501390244904201D1002005E003785A
:108DB00011F8014FA34201D0181B10BD0130F2E79A
:108DC0000A44914200F1FF3300D1704710B511F809
:108DD000014B03F8014F9142F9D110BD0244034603
:108DE000934200D1704703F8011BF9E738B5104BE7
:108DF0001D68AB6B0446B3B91820FEF7B5FB0246FD
:108E0000A86320B90B4B0C484221FEF7C5FB0B4968
:108E10000B4BC0E900130B4B83600B2383810021B4
:108E20000120C2E90401AB6B00221C615A6138BD0C
:108E300048E103203D940B0054940B000E33CDAB5E
:108E400034126DE6ECDE0500034613F8012B002A10
:108E5000FBD1181A013870472DE9F843DFF8B880C4
:108E60000646D8F800001F460D46914600F056F819
:108E7000254B1C6834B9254C1C60254B13B11B686D
:108E8000C4F8883063681F2B07DDD8F8000000F0B5
:108E900047F84FF0FF30BDE8F8834EB3D4F88800B0
:108EA00088B91C4B23B9D8F8000000F038F8F0E777
:108EB0004FF48470FEF758FB0028F4D00023C0E97B
:108EC0004033C4F88800636840F8239001229A4038
:108ED00000EB8301D0F800311343C0F80031022EBB
:108EE000C1F8807002BFD0F804311343C0F80431D8
:108EF0006368D8F800005A1C0233626044F82350BB
:108F000000F00EF80020C6E7E8E703205CE7032046
:108F10000000000069750B00ACE10320704770474A
:108F20007047000021400B005D400B0085400B00A6
:108F300089400B000000000064656661756C742058
:108F4000004D5342004C5342003C5350495365740A
:108F500074696E67732064656661756C743E003C6D
:108F600053504953657474696E6773202573257572
:108F7000202573204D4F444525753E00436F756C89
:108F800064206E6F742066696E64204153373334F9
:108F90003100436F756C646E27742066696E6420BF
:108FA00052544300525443206973204E4F54207250
:108FB000756E6E696E672100415739353233206E08
:108FC0006F7420666F756E643F20436865636B2025
:108FD000776972696E6721004157393532332066EF
:108FE0006F756E642100345F395F32345F37303023
:108FF0006D735F313238785F325F747572626964A5
:109000006974792E637376004461746520616E64BF
:109010002054696D652C41535445502C4154494DA1
:10902000452C4741494E2C4C45442053746174757E
:10903000732C4C454420496E74656E736974792CA9
:10904000546573742C5365636F6E64732C4D696C37
:109050006C697365636F6E64732C547970652C460C
:109060003120284261736963292C463220284261ED
:10907000736963292C463320284261736963292C64
:10908000463420284261736963292C4635202842E2
:1090900061736963292C463620284261736963290C
:1090A0002C463720284261736963292C46382028D2
:1090B0004261736963292C436C65617220284261A7
:1090C000736963292C4E49522028426173696329D0
:1090D0002C547970652C46312028526177292C4612
:1090E000322028526177292C463320285261772973
:1090F0002C46342028526177292C4635202852618D
:1091000077292C46362028526177292C463720288B
:10911000526177292C46382028526177292C436CDC
:109120006561722028526177292C4E4952202852BD
:109130006177292C20417070726F782054696D65B9
:10914000004572726F72206F70656E696E6720667F
:10915000696C6521004C454420494E54454E5349A5
:1091600054593A002028002920004572726F72205D
:1091700072656164696E6720616C6C206368616E02
:109180006E656C7321004631203431356E6D203AA6
:1091900020002020005261772056616C7565203ACE
:1091A00020004632203434356E6D203A200046339C
:1091B000203438306E6D203A200046342035313569
:1091C0006E6D203A20004635203535356E6D203ADB
:1091D00020004636203539306E6D203A2000463763
:1091E000203633306E6D203A200046382036383035
:1091F0006E6D203A2000436C656172202020203A79
:1092000020004E49522020202020203A20004C45AA
:1092100044204F4E0032353500300042415349431F
:1092200020434F554E5453005241572056414C5500
:1092300045530000000000000000000081410B00C9
:10924000B3400B00D1400B00000000000000000004
:10925000CF400B00DF400B001F410B0019410B00FA
:10926000B5400B00F9400B00F3400B00ED400B0044
:109270000000003F0000803F0000004000008040F0
:1092800000000041000080410000004200008042D8
:109290000000004300008043000000440000000084
:1092A00000000000054D0B001F1C1F1E1F1E1F1F6E
:1092B0001E1F1E1F00000000000000002F760B0084
:1092C00025760B001B760B0011760B0005760B0044
:1092D000F9750B00A1780B00A9780B00ED750B0058
:1092E000E5750B00DB750B00D1750B00D9780B0011
:1092F00000000000000000004D760B0097760B0088
:109300006F760B004F760B0077760B007F760B00A5
:1093100087760B008F760B00000000000000000035
:1093200071770B0061770B0063770B006170700041
:10933000000000000000000061780B006B780B005B
:1093400075780B007F780B0089780B0095780B00FF
:10935000A1780B00A9780B00B1780B00BD780B0049
:10936000C5780B00CF780B00D9780B006E616E00CA
:10937000696E66006F7666002E00000810182028BF
:10938000303825592D256D2D25645425483A254D15
:109390003A2553257A0061736374696D6500000096
:1093A00000000000000000004D7E0B00B97E0B00A5
:1093B000917E0B00C5790B00617E0B007D7E0B005A
:1093C0006F7E0B008B7E0B004F7E0B00537E0B00DD
:1093D0000000000000000000F77E0B005F7F0B0024
:1093E000357F0B00C5790B00277F0B00F97E0B0042
:1093F000097F0B00597F0B00197F0B00F17E0B00DA
:10940000000000000000000063800B0059800B008A
:109410004F800B0005800B0043800B0037800B0052
:10942000A1780B00A9780B002B800B0023800B0088
:1094300019800B000F800B00D9780B0000524545B6
:109440004E54206D616C6C6F63207375636365654A
:10945000646564002F746D702F6A656E6B696E733E
:109460002D4743432D31302D706970656C696E65F1
:109470002D34385F32303230313132345F31363072
:10948000363138303633392F7372632F6E65776C0F
:1094900069622F6E65776C69622F6C6962632F73E6
:1094A00074646C69622F72616E642E630000000048
:1094B000C54B0B00C1750B0039760B0051780B00C2
:1094C000B1790B007D7C0B00157E0B00397E0B0003
:1094D0006D800B0000000000000000000000000094
:1094E000040000001400000003000000474E550077
:1094F00031646B986C51E729E9904D05A6A2EA6D9D
:049500009EDBE27795
:049504000000000063
:10950800FA00000053756E646179000000000000E5
:109518004D6F6E646179000000000000547565733A
:1095280064617900000000005765646E65736461CA
:109538007900000054687572736461790000000056
:109548004672696461790000000000005361747517
:10955800726461790000000096930B004CE10320CF
:1095680000000000000000000000000000000000F3
:1095780000000000000000000000000000000000E3
:1095880000000000000000000000000000000000D3
:1095980000000000000000000000000000000000C3
:1095A80000000000000000000000000000000000B3
:1095B80000000000000000000000000000000000A3
:0495C800ECE70320A9
:1095CC00FFFFFFFF00000102030405060708090A5C
:1095DC000B0C0D0E0F101112131415161718191A57
:0895EC001B1C1D1E1F2028009E
:0495F400785634125F
:04000003B0004020E9
:00000001FF
